:020000040800F2
:10000000883D0020415F0008790700087B07000851
:100010007F0700088307000887070008000000002A
:100020000000000000000000000000008B07000836
:100030008D070008000000008F07000891070008E6
:100040005B5F00085B5F00085B5F00085B5F0008A8
:100050005B5F00085B5F00085B5F0008A53D000870
:100060005B5F00083D3D00085B5F00085B5F0008C8
:100070005B5F00085B5F00085B5F00085B5F000878
:100080005B5F00085B5F00085B5F00085B5F000868
:100090005B5F00085B5F00085B5F00087B3C00085B
:1000A0005B5F00085B5F00085B5F00085B5F000848
:1000B0005B5F00086B3A0008330700085B5F0008CD
:1000C0005B5F00085B5F00085B5F00085B5F000828
:1000D0005B5F000893070008D107000803080008C9
:1000E0005B5F00085B5F00085B5F00085B5F000808
:1000F0005B5F00085B5F00085B5F00085B5F0008F8
:100100005B5F00085B5F00085B5F00085B5F0008E7
:100110005B5F00085B5F00085B5F00085B5F0008D7
:100120005B5F00085B5F00085B5F00085B5F0008C7
:10013000DFF80CD008F0B0FD004800471F070008AA
:10014000883D002070B504460D462946204604F03F
:1001500012F870BD2DE9F041F64CF7A5FEA6204639
:1001600008F07CF9074639462046FFF7EBFF30469A
:1001700008F074F9074639463046FFF7E3FF284692
:1001800008F06CF9074639462846FFF7DBFFBDE863
:10019000F08110B5F8480068401CF749086008462F
:1001A00000681421B0FBF1F201FB1200032801D119
:1001B000FFF7D0FF10BD10B505F0BCFE05F052FEF4
:1001C0004FF4164003F0F1FE48214FF47A7003F02B
:1001D000EAFB0121E94805F0F4FF10BD10B5044623
:1001E000E74807F0BFFF2246E6A1E54808F01CF803
:1001F000AFF2AF01E24808F046F810BDE3490860ED
:100200007047E34B1860E34B1960E34B1A6070478B
:10021000E24A1060E24A11607047E24908607047A4
:1002200070B504460D460120DF4908702146DF48BD
:1002300008F01BF92946DE4808F017F970BD38B5FB
:10024000002405E09DF800202046641CD9490A548A
:100250006946D94808F057F810B9B4F5007FF1D3D2
:1002600004B938BDD548007828B1AFF26F022146F5
:10027000D04800F0ECFFD248007828B1AFF2650218
:100280002146CC4805F092FDCE48007828B1AFF267
:100290008D022146C74804F084F9CB48007828B184
:1002A000AFF293022146C34805F0F6FAC74800783A
:1002B00028B1AFF293022146BE4805F06FFC00BFA3
:1002C000CFE770472DE9F04106460D46284607F076
:1002D00035FF0746BE480068401CBD490860BDA107
:1002E000304607F002FF88B1BC48007808B1BDE88D
:1002F000F081BBA1284607F0F8FE18B1012002F0FA
:10030000C2FE74E0002002F0BEFE70E0B5A13046EF
:1003100007F0EBFEF0B10020B4490860B0A1284618
:1003200007F0E3FE78B1B248006818B9012002F086
:10033000BBFF02E00120AD490860AD480068401CE9
:10034000AB49086053E0002002F0AEFF0020A8494E
:1003500008604CE0A7A1304607F0C7FEF0B10020CE
:10036000A64908609EA1284607F0BFFE78B1A448C0
:10037000006818B9012002F0BFFF02E001209F4988
:1003800008609F480068401C9D4908602FE00020DD
:1003900002F0B2FF00209A49086028E099A1304697
:1003A00007F0A3FE60B18EA1284607F09EFE18B1AB
:1003B00001208A4908701AE000208849087016E078
:1003C00092A1304607F091FE30B1284607F0A5FE15
:1003D0000446904804600AE08FA1304607F085FE8D
:1003E00028B1284607F099FE04468D48046000BFF6
:1003F0007DE710B5AFF233118A4807F020FEAFF267
:100400003D11894807F01BFEFFF719FF8748007868
:1004100008B101F0D5FF10BD1CB58548006848B192
:10042000694601A804F0DEFF82490198086082490C
:10043000009808601CBD10B58048007808B103F032
:10044000AAF910BD01280BD101217D4A11707D4907
:10045000097809B9012100E000217A4A11700CE005
:1004600002280AD10121784A11707849097809B91E
:10047000012100E00021754A1170704710B55748FE
:10048000007898B17248006865490968884205D8C3
:10049000704800685F490968884203D9012002F06A
:1004A000F2FD06E0002002F0EEFD02E0002002F086
:1004B000EAFD10BD10B5FFF76CFE314807F052FEA3
:1004C00065A002F069F966A002F04DF866A002F09E
:1004D00068FD2CA002F099FD4448016864A002F078
:1004E00076FD4648016865A002F071FDAFF2AB31C0
:1004F000234807F0C8FEFFF7C1FF10BD10B54FF449
:1005000080626149474807F0E1FC4FF400725F499F
:100510001B4807F024FE4FF480725D49424807F003
:10052000D5FC174801F0DDFF01234FF4FA62AFF26A
:100530007B01AFE0509600087B226366675F7769B6
:1005400066695F73736964223A227869616F746FB8
:100550006E6772656E227D007B226366675F7769D6
:1005600066695F706173737764223A223132333483
:1005700035363738227D00000000002000023000B0
:100580008406002063617264310000006002002074
:10059000700200207402002078020020F801002080
:1005A000F401002064020020B50200206A1000203F
:1005B0007910002084040020E00D0020B602002005
:1005C000B7020020B3020020B8020020B4020020CD
:1005D0008C020020626565703100000091020020ED
:1005E0006F6E00006A647131310000002C0300203E
:1005F000040000206A6471323100000030030020E2
:1006000008000020615F77656E3100006C5F6D71DE
:1006100031310000E40200206C5F77656E3100002C
:10062000C802002090080020B80C0020BB02002067
:10063000AC0200207C02002080020020BA020020D0
:1006400088020020890200208A0200208B020020FC
:1006500004020020480200206F6E6C696E65310054
:100660006D7131310000000077656E6475310000F6
:100670007A6875616E677461693100007A687561C6
:100680006E67746169320000B8080020900600208F
:10069000E00C0020304807F055FE01236422AFF241
:1006A000AD212E4807F04EFE01234FF47A72AFF2CF
:1006B00097212B4807F046FE01234FF47A72AFF2E0
:1006C0008921284807F03EFE234807F049FE2348C9
:1006D00007F046FE224807F043FE224807F040FE9E
:1006E000AFF29F2005F050F94FF400721E491F48E9
:1006F00007F0DBFD10BD10B5002002F0C4FC0020A7
:1007000002F0D2FD00221146104602F049FE002000
:1007100002F074FF0021084603F0D3F810BDFFF784
:10072000EDFEFFF748FDFFF7E6FF01E007F03BFEB7
:10073000FCE710B501210E4807F025FB50B101215F
:100740000B4807F031FB07F049FE0A48007808B172
:1007500005F080F910BD0000F40F00200410002007
:100760001410002024100020F40D0020E00D0020C3
:1007700000080040B9020020704700BFFEE700BF3C
:10078000FEE700BFFEE700BFFEE770477047704717
:10079000704708B540F22551234806F021F9B0B161
:1007A0000020009040F225511F4806F043F91E48F2
:1007B00006F096F8C0B200909DF800101B4807F0B4
:1007C00084FD012269461A4807F07FFC00BF08BD7E
:1007D00008B50020009040F22551164806F000F9B7
:1007E00070B140F22551134806F024F9114806F083
:1007F00077F8C0B20090012269460F4807F065FC07
:1008000008BD10B540F225510C4806F0E9F850B18A
:10081000002440F22551094806F00CF9074806F07B
:100820005FF8C4B200BF10BD00380140E00D0020E9
:10083000B80C002000440040900800200048004010
:100840000CB50020019000906B48006840F48030A7
:100850006949086000BF6848006800F400300090F3
:100860000198401C0190009818B90198B0F5A06F4C
:10087000F1D16148006810F4003F02D001200090DF
:1008800001E0002000900098012842D15B480068F8
:1008900040F01000594908600846006820F0030045
:1008A00008600846006840F002000860524840684E
:1008B000514948600846406848600846406840F42E
:1008C000806048600846406820F47C104860084614
:1008D000406840F4E81048600846006840F08070C6
:1008E000086000BF4448006810F0007FFAD042481A
:1008F000406820F00300404948600846406840F0E6
:100900000200486000BF3C48406800F00C00082826
:10091000F9D10CBD10B5FFF793FF10BD10B53648E7
:10092000006840F0010034490860084640683449D6
:1009300008403149486008460068324908402E495D
:1009400008600846006820F4802008600846406877
:1009500020F4FE0048604FF41F008860FFF7DAFFC4
:100960004FF000602849086010BD10B5002100203C
:100970000022214B5B6803F00C0121B1042906D051
:10098000082928D107E0214B214C236027E01F4B89
:100990001F4C236023E0184B5B6803F47010164B68
:1009A0005B6803F48032022303EB904022B9194BB9
:1009B0004343174C23600DE00F4B5B6813F4003F7B
:1009C00004D0144B4343124C236003E00F4B4343CA
:1009D0000F4C236003E00D4B0D4C236000BF00BFA4
:1009E000054B5B68C3F303130B4CE15C084B1B68BE
:1009F000CB40074C236010BD001002400020024095
:100A00000000FFF8FFFFF6FE08ED00E000127A009C
:100A10000C00002000093D001000002038B50446FD
:100A2000102C77D2DFE804F008131E29343F4A5512
:100A3000606B77828D98A3AE0120ADF80000002096
:100A40008DF803006946804805F0ECFAA6E0022024
:100A5000ADF8000000208DF8030069467A4805F0E3
:100A6000E1FA9BE00420ADF8000000208DF80300BF
:100A70006946754805F0D6FA90E00820ADF8000008
:100A800000208DF8030069466F4805F0CBFA85E039
:100A90001020ADF8000000208DF8030069466A4878
:100AA00005F0C0FA7AE02020ADF8000000208DF8B3
:100AB00003006946644805F0B5FA6FE04020ADF8E0
:100AC000000000208DF8030069465F4805F0AAFA8F
:100AD00064E08020ADF8000000208DF80300694636
:100AE000594805F09FFA59E00120ADF800000020B8
:100AF0008DF803006946554805F094FA4EE002204F
:100B0000ADF8000000208DF8030069464F4805F05D
:100B100089FA43E041E00120ADF8000000208DF8A3
:100B2000030069464A4805F07DFA37E00220ADF837
:100B3000000000208DF803006946454805F072FA70
:100B40002CE00420ADF8000000208DF80300694679
:100B50003F4805F067FA21E00820ADF800000020CA
:100B60008DF8030069463A4805F05CFA16E010205B
:100B7000ADF8000000208DF803006946344805F008
:100B800051FA0BE02020ADF8000000208DF80300A2
:100B900069462F4805F046FA00E000BF00BF38BDA7
:100BA00010B586B004462046FFF738FF01214FF408
:100BB000017005F0EDFC4FF4004005F050FC2548B5
:100BC00005F0C0FF002001908DF808008DF80900A5
:100BD0004FF4602003900020049001208DF8140051
:100BE00001A91C4805F0D5FF01211A4805F0FDFFB9
:100BF000184806F01CF800BF164806F01DF800283B
:100C0000FAD1144806F022F800BF124806F023F883
:100C10000028FAD106B010BD10B50446E1B2072392
:100C200001220C4806F04DF801210A4806F01DF893
:100C300000BF0221074806F089F90028F9D00548CD
:100C400006F0A6F810BD000000080140000C0140AD
:100C5000001001400024014010B56148006820F4F4
:100C600070405F4908600846006840F440500860E2
:100C700000205C4908604FF0140005F02FF90120B6
:100C80005949C1F8AC011E2005F005F910BD10B599
:100C900000245348006820F4704051490860084619
:100CA000006840F40040086004E0601CC4B2012009
:100CB00005F0F1F84D48006808B1642CF5DB642CB0
:100CC00001DB012010BD002404E0601CC4B201203F
:100CD00005F0E1F84548006808B9642CF5DB642CA0
:100CE00001DB0120EEE70020ECE710B5002404E072
:100CF000601CC4B2012005F0CEF83C48006808B181
:100D0000642CF5DB002404E0601CC4B2012005F073
:100D1000C2F83648006808B9642CF5DB282005F0D5
:100D2000BAF83248006808B1012010BD0020FCE785
:100D300070B50024002506E06006040EFFF7D5FF1D
:100D40000443681CC5B2082DF6DB204670BD7CB597
:100D500005460E46FFF780FFFFF799FFF8B900241C
:100D600005E0FFF7E5FF0DF80400601CC4B2052C98
:100D7000F7DB9DF800009DF8011008449DF8021073
:100D800008449DF8031008449DF80410884208D1D7
:100D90009DF8000030709DF80200287001E00120ED
:100DA0007CBD0020FCE710B50121082005F0F0FB18
:100DB0000B48006820F47040094908600846006844
:100DC00040F44050086006480830006840F4006075
:100DD000034908310860FFF73FFFFFF758FF10BDD8
:100DE000040C0140AC812142008021422C8121422F
:100DF00010B500244FF48041904805F0BEF9322030
:100E000005F049F84FF480418C4805F0B8F94FF4EB
:100E1000FA7005F040F84FF48041884805F0ADF9CC
:100E2000282005F038F800BF4FF48041834805F0D2
:100E30008AF920B12046641C81498842F4D34FF4DA
:100E4000FA7005F028F84FF480417C4805F095F9D8
:100E5000284610BD70B50446082523E04FF48041B4
:100E6000764805F08CF9052005F015F814F0010F0F
:100E700005D04FF48041714805F07FF904E04FF44C
:100E800080416E4805F07BF9412005F004F84FF4ED
:100E900080416A4805F071F9022004F0FCFF6410FB
:100EA000681EC5B2002DD9DC70BD70B54FF480410D
:100EB000624805F062F9052004F0EDFF082525E001
:100EC00064104FF480415D4805F059F9052004F0A5
:100ED000E2FF4FF48041594805F04FF9052004F036
:100EE000DAFF4FF48041554805F02DF910B144F078
:100EF000800401E004F07F04412004F0CCFF4FF4B3
:100F000080414E4805F039F9681EC5B2002DD7DC86
:100F1000204670BD70B504463320FFF79BFF0825BF
:100F200005E0FFF7C2FF2070641C681EC5B2002DEB
:100F3000F7DC70BD2DE9F04106460C46154600274A
:100F4000FFF756FFCC20FFF785FF4E20FFF782FF0B
:100F50002846FFF77FFF2046FFF77CFF3046FFF76C
:100F600079FFFFF745FFCC20FFF774FF4820FFF71C
:100F700071FF00BF4FF48041304805F0E4F820B91C
:100F800038467F1C2E498842F4D3BDE8F08110B565
:100F9000FFF72EFFCC20FFF75DFF4420FFF75AFF3D
:100FA00010BD08B50121082005F0F2FA4FF4804089
:100FB000ADF8000014208DF8030003208DF8020026
:100FC00069461E4805F02EF808BD10B5FFF7E9FF89
:100FD0008A2264217F20FFF7ADFFFFF7D8FF10BD05
:100FE00070B5FFF705FFCC20FFF734FFBE20FFF7F9
:100FF00031FFFFF75AFF0546FFF757FF0446FFF79B
:10100000F7FE14F0800F09D0E043C0B240F00804AE
:10101000E843401CC5B20DB9601CC4B2200100EB0E
:101020001510C4B205F00F0006490D5C264645EACE
:101030000626FFF7ACFF204670BD0000000C014003
:1010400020A107002000002008B50121402005F064
:101050009FFA4FF48040ADF8000010208DF8030097
:1010600003208DF8020069466E4804F0DBFF4FF460
:1010700080416C4805F081F808BD08B501210820C1
:1010800005F086FA48208DF803004FF48070ADF823
:10109000000003208DF802006946634804F0C2FF97
:1010A00008BD10B500244FF480715F4805F04BF87F
:1010B00004463CB95D480078012101EB40005B49E2
:1010C000087006E059480078FE2101EA40005749BF
:1010D00008705648007810F00F0F01D1002010BDA5
:1010E0000120FCE708B50121082005F051FA48204D
:1010F0008DF803004FF40070ADF8000003208DF868
:1011000002006946484804F08DFF08BD08B501217A
:10111000082005F03DFA48208DF803004FF4004008
:10112000ADF8000003208DF8020069463E4804F047
:1011300079FF08BD08B50121082005F029FA4820EB
:101140008DF803001020ADF8000003208DF8020098
:101150006946354804F066FF08BD10B5002410212B
:10116000314804F0F0FF04463CB9314800780121D1
:1011700001EB40002E49087006E02D480078FE2162
:1011800001EA40002A4908702948007810F0070F4A
:1011900001D1002010BD0120FCE710B500244FF460
:1011A0000071214804F0CFFF0446012C07D12148EB
:1011B0000078012101EB40001E49087006E01D483F
:1011C0000078FE2101EA40001A49087019480078A9
:1011D00010F00F0F01D1002010BD0120FCE710B569
:1011E00000244FF40041104804F0ADFF0446012CE8
:1011F00007D111480078012101EB40000E49087029
:1012000006E00D480078FE2101EA40000A49087016
:101210000948007810F00F0F01D1002010BD012007
:10122000FCE7000000180140000C014030000020E5
:1012300031000020320000203300002038B5044681
:101240002AA00068009003216846A04738BD2DE918
:10125000F04706460D461746A946B046B9F1000FBD
:1012600042DD38E018F8014B5A2C0DD120480078A7
:101270005A2809D11F490870487001201E4908707A
:1012800002201E49086024E01B480078012820D174
:101290001A4801680068401C184A106015484454F8
:1012A0001348047010460068092812DB1148407981
:1012B0001049097940EA0120642190FBF1F01049BE
:1012C000086008460068B84700200B4908700B49C1
:1012D0000860074804705FEA0900A9F1010903D01A
:1012E000064800681E28BDD3BDE8F087A515BA00E2
:1012F0003800002034100020390000203400002085
:101300003C00002008B50121082005F041F901202A
:10131000ADF8000010208DF8030003208DF80200C6
:1013200069463E4804F07EFE0220ADF800004820E9
:101330008DF803006946394804F074FE01213748EE
:1013400004F01BFF08BD70B5002601203449086079
:1013500004F0A1FD00203349C1F88001002400BF42
:101360002F48006820B13046761C2F498842F7D3B9
:10137000002513E001202D4908604FEA440404F0E1
:101380008AFD00202749C1F880012548006800B186
:10139000641C012004F07FFD681CC5B2182DE9DB38
:1013A00001202249086084F4000404F074FD002048
:1013B0001C49C1F88001204670BD10B5FFF7C3FF7E
:1013C0001B49086010BD2DE9F047FFF7BCFF194924
:1013D00008600846006816490968401A15490860FF
:1013E00008460068002811DD0846006807F083F908
:1013F000814607F0E5F9074600220F4B07F00CF98C
:10140000054607F0C4F90B49086002E000200949CD
:101410000860084804682046BDE8F087000C0140D9
:10142000048121420080214220A1070080812142C5
:10143000400000204400002000A05A4010B54FF4A6
:101440000041F94804F099FE4FF48041F64804F059
:1014500094FE4FF48041F44804F091FE4FF40041B3
:10146000F14804F08CFE10BD10B54FF40041EE4879
:1014700004F083FE4FF48041EB4804F080FE4FF40B
:101480008041E94804F079FE10BD10B54FF40041E9
:10149000E54804F072FE4FF40041E34804F06FFEAB
:1014A00010BD2DE9F04105462C464FF40041DE48C1
:1014B00004F065FE00261CE0274607F08007802F19
:1014C00004D1F901D84804F058FE04E04FF48041FB
:1014D000D54804F054FE6006040E4FF40041D24893
:1014E00004F04BFE4FF40041CF4804F048FE701C5E
:1014F000C6B2082EE0DBBDE8F08110B50446FFF768
:101500009DFF7820FFF7CDFFFFF7BFFF0020FFF71B
:10151000C8FFFFF7BAFF2046FFF7C3FFFFF7B5FF8D
:10152000FFF7A2FF10BD10B50446FFF787FF782034
:10153000FFF7B7FFFFF7A9FF4020FFF7B2FFFFF764
:10154000A4FF2046FFF7ADFFFFF79FFFFFF78CFFDB
:1015500010BD70B504460D461DB1E0B2FFF7E3FFC4
:1015600002E0E0B2FFF7C9FF70BD70B50646002487
:1015700018E004F1B0000021FFF7EBFF002108465E
:10158000FFF7E7FF00211020FFF7E3FF002505E04C
:1015900001213046FFF7DDFF681CC5B2802DF7DB67
:1015A000601CC4B2082CE4DB70BD06E041F66501A6
:1015B00000E0491E0029FCD1401E0028F6D17047EA
:1015C000014605E0002001E0421CD0B27B28FBDB95
:1015D0000A00A1F10101F5D1704770B504460D462E
:1015E00005F1B0000021FFF7B4FF102141EA14100B
:1015F0000021FFF7AEFF04F00F000021FFF7A9FF65
:1016000070BD10B500218D20FFF7A3FF002114202D
:10161000FFF79FFF0021AF20FFF79BFF10BD10B524
:1016200000218D20FFF795FF00211020FFF791FF8B
:101630000021AE20FFF78DFF10BD70B5002418E02B
:1016400004F1B0000021FFF784FF00210846FFF7F6
:1016500080FF00211020FFF77CFF002505E001211D
:101660000020FFF776FF681CC5B2802DF7DB601CF9
:10167000C4B2082CE4DB70BD70B5002418E004F19E
:10168000B0000021FFF765FF00210846FFF761FF6A
:1016900000211020FFF75DFF002505E0012108462D
:1016A000FFF757FF681CC5B2802DF7DB601CC4B282
:1016B000082CE4DB70BD2DE9F04707460E46904646
:1016C000994600250024A8F12000C5B27F2F02DD35
:1016D0000027B01CC6B2B9F1100F24D131463846EC
:1016E000FFF77BFF002408E004EB05114F4A505C34
:1016F0000121FFF72EFF601CC4B2082CF4DB701C24
:10170000C1B23846FFF769FF002409E004EB051178
:101710000831464A505C0121FFF71BFF601CC4B230
:10172000082CF3DB12E031463846FFF756FF002461
:101730000AE005EB45013E4A02EB4101085D01214B
:10174000FFF707FF601CC4B2062CF2DBBDE8F08790
:1017500010B50246012000E050430B00A1F1010446
:10176000E1B2F9D110BD2DE9FF5F074691461E4653
:101770000E9D4FF0000A002435E0301B401EC1B220
:101780000A20FFF7E5FFB9FBF0F00A21B0FBF1F208
:1017900001FB1208BAF1000F14D1701EA04211DD36
:1017A000B8F1000F0CD1AB4605EBDB71491001FB22
:1017B0000471C8B22B4620220199FFF77CFF10E08C
:1017C0004FF0010AAB4605EBDB71491001FB0471D8
:1017D000C8B208F13001CAB22B460199FFF76BFF7E
:1017E00000BF601CC4B2B442C7DBBDE8FF9F2DE957
:1017F000F04104460F461546984600260FE0AA5DC4
:10180000434639462046FFF756FF04F10800C4B2AC
:10181000782C02DD0024B81CC7B2701CC6B2A85DCB
:101820000028ECD1BDE8F08100100140BA98000812
:10183000929600082DE9F04180460E461546002795
:1018400031464046FFF7C9FE00240AE0754A02EB24
:101850008511085D0121FFF77CFE781CC7B2601C72
:10186000C4B2102CF2DB701CC1B24046FFF7B5FECB
:1018700000240CE06900491C6A4A02EB4111085D32
:101880000121FFF766FE781CC7B2601CC4B2102CA1
:10189000F0DBBDE8F0812DE9F05F06460F4690468B
:1018A0001C46DDF828A04FF0000BE11704EB517146
:1018B000C910B4EBC10106D12046E11704EB517108
:1018C000C1F3C70506E02046E11704EB5171C910CA
:1018D000491CCDB23D4615E029463046FFF77DFE56
:1018E000B1460BE059460BF1010B1AF8010001213A
:1018F000FFF72FFE09F1010000F0FF09C145F1DB00
:10190000681CC5B2A542E7DBBDE8F09F08B5012120
:10191000102004F03DFE4FF44040ADF800001020D0
:101920008DF8030003208DF8020069463E4804F05C
:1019300079FB4FF440413C4804F01FFC4FF4FA702F
:1019400004F0CCFA0021AE20FFF703FE0021084688
:10195000FFF7FFFD00211020FFF7FBFD00214020D5
:10196000FFF7F7FD0021B020FFF7F3FD00218120F4
:10197000FFF7EFFD0021FF20FFF7EBFD0021A12085
:10198000FFF7E7FD0021A620FFF7E3FD0021A820D7
:10199000FFF7DFFD00213F20FFF7DBFD0021C8201E
:1019A000FFF7D7FD0021D320FFF7D3FD0021084624
:1019B000FFF7CFFD0021D520FFF7CBFD00218020D0
:1019C000FFF7C7FD0021D820FFF7C3FD0021052048
:1019D000FFF7BFFD0021D920FFF7BBFD0021F1205B
:1019E000FFF7B7FD0021DA20FFF7B3FD0021122039
:1019F000FFF7AFFD0021DB20FFF7ABFD002130201A
:101A0000FFF7A7FD00218D20FFF7A3FD0021142083
:101A1000FFF79FFD0021AF20FFF79BFDFFF70DFEB5
:101A200008BD0000480000200010014030B589B01A
:101A300005460C460121C80204F0AAFD012104203C
:101A400004F0A6FD4FF40060ADF8200018208DF8DA
:101A5000230003208DF8220008A9574804F0E2FA79
:101A6000681E80B2ADF81800601E80B2ADF8140098
:101A70000020ADF81A00ADF8160005A94F4805F092
:101A80005DFB7020ADF804000120ADF806000020D9
:101A9000ADF80A00ADF80C0001A9484805F065FC56
:101AA0000121464805F0B2FE0821444805F0F1FF47
:101AB0000121424805F09EFF0121404805F09AFEB1
:101AC00009B030BD10B50446632C00DD6324C4F1B9
:101AD0006300C4B22146394806F02AF910BD10B59A
:101AE0000446632C00DD6324C4F16300C4B22146C4
:101AF000324806F017F910BD30B589B005460C46DE
:101B00000121084604F051FD0121042004F040FDAC
:101B10000C20ADF8200018208DF8230003208DF84C
:101B2000220008A9244804F07DFA681E80B2ADF8AE
:101B30001800601E80B2ADF814000020ADF81A0045
:101B4000ADF8160005A94FF0804005F0F7FA7020B7
:101B5000ADF804000120ADF806000020ADF80A0041
:101B6000ADF80C0001A94FF0804005F0B3FB01A9CE
:101B70004FF0804005F0F9FB0121880705F046FE93
:101B80000821C80605F07CFF0821C80605F081FF82
:101B90000121880705F02EFF0121880705F02AFEA4
:101BA00063214FF0804006F0C1F863214FF0804080
:101BB00006F0BEF809B030BD00080140002C01401D
:101BC000002107E0002200E0521C4EF660239A42FA
:101BD000FAD3491C8142F5D3704708B5012104208E
:101BE00004F0D6FC4FF48050ADF8000010208DF8C2
:101BF000030002208DF802006946FE4804F012FA44
:101C00000121082004F0C4FC4020ADF800000420AD
:101C10008DF8030002208DF802006946F64804F0B2
:101C200001FA0121082004F0B3FC4FF48070ADF8F4
:101C3000000010208DF8030002208DF80200694694
:101C4000ED4804F0EFF90121082004F0A1FC4FF465
:101C50000050ADF8000010208DF8030002208DF830
:101C600002006946E44804F0DDF90121082004F08F
:101C70008FFC4FF40040ADF8000010208DF80300F9
:101C800002208DF802006946DB4804F0CBF908BD5C
:101C90002DE9F04106460D464FF40051D64804F0B8
:101CA0006EFA4FF40041D44804F069FA7E2000EA4D
:101CB000460708241BE017F0800F05D04FF4807111
:101CC000CD4804F05AFA04E04FF48071CA4804F099
:101CD00056FA4FF40051C84804F04FFA7806070E40
:101CE0004FF40051C44804F04AFA601EC4B2002CFC
:101CF000E1DC08241BE015F0800F05D04FF4807163
:101D0000BD4804F03AFA04E04FF48071BA4804F098
:101D100036FA4FF40051B84804F02FFA6806050E61
:101D20004FF40051B44804F02AFA601EC4B2002CEB
:101D3000E1DC4FF40041B04804F01FFA4FF40051C9
:101D4000AD4804F01AFABDE8F0812DE9F0410646ED
:101D500000254FF40041A84804F011FA7E2000EA63
:101D6000460040F0800708241BE04FF40051A248D1
:101D700004F005FA17F0800F05D04FF480719E48EB
:101D800004F0FBF904E04FF480719B4804F0F7F98C
:101D90004FF40051984804F0F0F97806070E601EE1
:101DA000C4B2002CE1DC082415E04FF40051924845
:101DB00004F0E5F96806050E4FF400518E4804F072
:101DC000DCF940218C4804F0BEF9012801D145F02E
:101DD0000105601EC4B2002CE7DC4FF400418648C8
:101DE00004F0CBF94FF40051834804F0C6F92846BB
:101DF000BDE8F08170B505460C4600262846FFF781
:101E0000A4FF064646EA04012846FFF741FF70BDDD
:101E100070B505460C4600262846FFF796FF064695
:101E200026EA04012846FFF733FF70BD2DE9FE4F77
:101E30000646884691469A46DDF830B0FE2002906C
:101E40000020019000900C2E06D00E2E09D11220F9
:101E500001901020009005E0772001903020009044
:101E600000E000BF00BF019840F080010220FFF7B2
:101E70000FFF80210420FFF7CBFF00210120FFF797
:101E800007FF80210A20FFF7B5FF002505E018F8BD
:101E900005100920FFF7FCFE6D1C4D45F7D33146B8
:101EA0000120FFF7F5FE0C2E03D180210D20FFF756
:101EB000A1FF4FF4FA6500BF0420FFF746FF044678
:101EC0006D1E2DB114F0010F02D100980442F3D021
:101ED00080210D20FFF79CFF95B30620FFF735FF0B
:101EE00010F01B0F2DD1002002900198204010F01F
:101EF000010F01D0FF2002900C2E24D10A20FFF701
:101F000024FF04460C20FFF720FF00F007072FB145
:101F1000601E07EBC000CBF8000002E0E000CBF849
:101F2000000004B90124122C00DD1224002505E074
:101F30000920FFF70AFF0AF805006D1CA542F7D338
:101F400001E0FE20029080210C20FFF753FF0021CA
:101F50000120FFF79DFE0298BDE8FE8F70B588B0A6
:101F600005460C4608210846FFF752FF07210D20C1
:101F7000FFF78EFE03211420FFF73CFF8DF8085079
:101F800007A802AB012202A900900C20FFF74EFF28
:101F900006464EB90798102806D19DF80800207013
:101FA0009DF80900607000E0FE26304608B070BD64
:101FB000F0B587B00546002708210846FFF728FF3F
:101FC00000210D20FFF764FE80210E20FFF720FF87
:101FD00093208DF8040020208DF8050006A801ABA1
:101FE000022201A900900C20FFF720FF0646A6B9A7
:101FF00000240BE000080140000C014001A8005D36
:10200000285501A8005D4740601CC4B2042CF5DBD4
:1020100001A8005DB84200D0FE2680210E20FFF707
:10202000E9FE304607B0F0BD2DE9F041074688468D
:10203000154604210520FFF7EBFE00210120FFF7E4
:1020400027FE80210A20FFF7D5FE002405E0395D38
:102050000920FFF71DFE601CC4B24445F7DB0321D5
:102060000120FFF715FEFF2400BF0520FFF76DFEDE
:102070000646601EC4B214B116F0040FF5D022203B
:10208000FFF763FE28702120FFF75FFE6870BDE850
:10209000F08170B588B0054693208DF80800702057
:1020A0008DF8090000208DF80E0000240BE0295D5A
:1020B00002AAA01C11549DF80E00295D48408DF81D
:1020C0000E00601CC4B2042CF1DB0DF10F020721DD
:1020D00002A8FFF7A9FF08210846FFF799FE07A805
:1020E00002AB092202A900900C20FFF79FFE0646D2
:1020F00026B90798182801D1002600E0FE263046B0
:1021000008B070BD2DE9F04387B006460F469046F3
:1021100099468DF804608DF80570002406E018F8E3
:10212000041001AAA01C1154601CC4B2062CF6DBDA
:10213000002407E019F8041001AA04F10800115462
:10214000601CC4B2062CF5DB06A801AB0C2201A969
:1021500000900E20FFF76AFE05462DB90820FFF714
:10216000F4FD10F0080F00D1FE25284607B0BDE8A9
:10217000F083F0B587B005460E4630208DF8040098
:102180008DF805500DF10602022101A8FFF74CFF62
:1021900006A801AB042201A900900C20FFF746FE1F
:1021A000074667B90698902809D1002404E001A8E1
:1021B000005D3055601CC4B2102CF8DB00E0FE2737
:1021C000384607B0F0BDF0B587B006460F46A020F0
:1021D0008DF804008DF805600DF10602022101A8BA
:1021E000FFF722FF06A801AB042201A900900C20F2
:1021F000FFF71CFE054645B90698042805D19DF851
:10220000040000F00F000A2800D0FE250DBB0024BA
:1022100004E0385D01A90855601CC4B2102CF8DB3D
:1022200005AA102101A8FFF7FFFE06A801AB1222A4
:1022300001A900900C20FFF7F9FD054645B9069865
:10224000042805D19DF8040000F00F000A2800D0F2
:10225000FE25284607B0F0BD00B587B050208DF8A8
:10226000040000208DF805000DF10602022101A8EE
:10227000FFF7DAFE06A801AB042201A900900C20AA
:10228000FFF7D4FD002007B000BD10B54FF480511A
:102290004A4803F072FF0120FFF792FC4FF480518F
:1022A000464803F06CFF0120FFF78AFC4FF4805191
:1022B000424803F062FF0A20FFF782FC0220FFF78A
:1022C00044FD802802D12820FFF77AFC0F2101204D
:1022D000FFF7DEFC3D211120FFF7DAFC1E212D2047
:1022E000FFF7D6FC00212C20FFF7D2FC8D212A20FD
:1022F000FFF7CEFC3E212B20FFF7CAFC4021152022
:10230000FFF7C6FC002010BD10B51420FFF71DFD1F
:10231000044614F0030F03D103211420FFF76AFDD4
:1023200010BD10B50446412C25D108210846FFF701
:102330006FFD3D211120FFF7ABFC86211720FFF731
:10234000A7FC7F212620FFF7A3FC1E212D20FFF7ED
:102350009FFC00212C20FFF79BFC8D212A20FFF7FA
:1023600097FC3E212B20FFF793FC0120FFF728FC70
:10237000FFF7CAFF01E0FF2010BD0020FCE710B509
:1023800003211420FFF744FD10BD38B515E0694660
:102390005220FFF7E3FD044664B169465220FFF77F
:1023A000DDFD044634B169465220FFF7D7FD0446EF
:1023B00004B138BD0A20FFF703FCE8E7000801403C
:1023C00010B54FF40051FC4803F0BDFEFB490A680C
:1023D0000968491CF94B1960F94941F8220018466F
:1023E0000068142802D300201946086010BD38B5D3
:1023F00005460024F3480078E0B90120F14908704F
:102400000121082004F0C4F84FF40050ADF800009A
:1024100048208DF8030003208DF802006946E64845
:1024200003F000FE4FF40051E34803F0A8FE012042
:10243000E54908700020E5490860002409E0E0480B
:1024400050F8240018B10120E049086003E0601C46
:10245000C4B2142CF3D300BFDC4829460268DC4820
:10246000006805F092FE38BD38B505460024D9480D
:102470000078E0B90120D74908700121082004F054
:1024800087F84FF40050ADF8000048208DF80300A5
:1024900003208DF802006946C74803F0C3FD4FF4DE
:1024A0000051C54803F06BFE0120C74908700020A9
:1024B000C6490860002409E0C14850F8240018B952
:1024C0000120C249086003E0601CC4B2142CF3D39D
:1024D00000BFBE4829460268BD48006805F055FEA9
:1024E00038BDBB490860704770B50546BA480078EA
:1024F00028B90120B84908700520FEF751FB0520D6
:10250000FEF78AFB04462046E11704EBD1614C112B
:10251000642C00DD6424C4F16404283C002C00DA3F
:10252000002422462946AA48006805F02EFEAB4842
:10253000046070BD70B50546A948007828B901202F
:10254000A74908700620FEF72BFB0620FEF764FB68
:1025500004466409224629469D48006805F015FE98
:10256000A048046070BD70B505469F48007828B942
:1025700001209D4908700620FEF712FB0620FEF799
:102580004BFB04466409224629469148006805F041
:10259000FCFD9648046070BD70B50546944800780F
:1025A00028B90120924908700020FEF7F9FA0020AE
:1025B000FEF732FB04466409224629468448006837
:1025C00005F0E3FD8B4804608B48046070BD70B576
:1025D00005468A48007828B90120884908700020FB
:1025E000FEF7DEFA0020FEF717FB044664092246D8
:1025F00029467748006805F0C8FD7F48046070BD33
:1026000070B505467E48007828B901207C490870DD
:102610000620FEF7C5FA0620FEF7FEFA0446640916
:10262000224629466A48006805F0AFFD75480460F7
:1026300070BD70B505467448007820B90120724914
:102640000870FEF7ADFA0120FEF7E6FA04466409C9
:10265000802C01D9802000E020460446282C01D29D
:10266000282000E020460446C4F180042246294682
:102670005748006805F089FD6448046070BD70B576
:1026800005466348007820B9012061490870FEF7CB
:1026900087FA0120FEF7C0FA04466409282C01D20B
:1026A000282000E020460446412C01D9412000E0CA
:1026B00020460446283CA400224629464448006897
:1026C00005F063FD5348046070BD70B5064652487E
:1026D000007820B9012050490870FEF761FA012006
:1026E000FEF79AFA0446B4F5006F02D2C4F500650D
:1026F00001E0A4F5006505EB45104FF4CD71B0FB8A
:10270000F1F4032C00D200244448046022463146F0
:102710002F48006805F039FD70BD70B5054640488A
:10272000007828B901203E4908700020FEF738FAE9
:102730000020FEF771FA0446640904EB840000EB04
:102740004010C409374804602246294620480068E2
:1027500005F01BFD70BD70B505463348007828B9FB
:102760000120314908700420FEF71AFA0420FEF710
:1027700053FA044664097F2C01D97F2000E02046EB
:102780000446C4F17F04224629461148006805F03A
:10279000FCFC2648046070BD10B50446244800685F
:1027A000401C234908600846214602680848006822
:1027B00005F0EBFC10BD0000000C014058030020A8
:1027C000881000205C030020BB0200206C02002067
:1027D000B40300205D0300205E03002014020020EB
:1027E0005F03002040020020600300204802002018
:1027F00061030020440200204C02002062030020FC
:1028000063030020840200206403002050020020A3
:102810006503002018020020660300202802002023
:102820006703002024020020680300201C0200200F
:102830006C03002070B50546FE48007820B90120E1
:10284000FC490870FEF7ACF90120FEF7E5F90446F3
:10285000640922462946F848006805F096FCF748C6
:10286000046070BD38B50546F5480078C8B9012048
:10287000F34908700121082003F08AFE4FF48050CC
:10288000ADF8000048208DF8030003208DF8020009
:102890006946EC4803F0C6FB4FF48051E94803F069
:1028A0006EFC4FF48051E74803F04DFC0446E648C7
:1028B000046022462946E048006805F066FC38BD01
:1028C00038B50546E1480078C8B90120DF490870ED
:1028D0000121082003F05CFE4FF40050ADF8000029
:1028E00048208DF8030003208DF802006946D54882
:1028F00003F098FB4FF40051D24803F040FC4FF432
:102900000051D04803F01FFC0446D1480460224621
:102910002946C948006805F038FC38BD38B5054679
:10292000CC480078C8B90120CA49087001210820A4
:1029300003F02EFE4FF48050ADF8000048208DF8D3
:10294000030003208DF802006946BE4803F06AFBCD
:102950004FF48051BB4803F012FC4FF48051B9484A
:1029600003F0F1FB04460CB9012000E00020BA4955
:102970000860084629460268AF48006805F005FC73
:1029800038BD38B50546B5480078C8B90120B34907
:1029900008700121082003F0FBFD4FF48040ADF8E2
:1029A000000048208DF8030003208DF802006946DE
:1029B000A44803F037FB4FF48041A24803F0DFFB4B
:1029C0004FF480419F4803F0BEFB0446A4480460D6
:1029D000224629469848006805F0D7FB38BD70B5F7
:1029E0000546A048007828B901209E4908700720B4
:1029F000FEF7D6F80720FEF70FF904466409802C8D
:102A000000D98024C4F180049748046022462946F6
:102A10008948006805F0B9FB70BD70B5064693485B
:102A2000007828B90120914908700620FEF7B8F80F
:102A30000620FEF7F1F804466409622C0DD3A4F1D8
:102A4000620000EB800040003721B0FBF1F5072D5C
:102A500000D90725C5F107040BE0C4F1620000EBC3
:102A6000800040003E21B0FBF1F5072D00D907257D
:102A7000EC1D7F480460224631466F48006805F02F
:102A800084FB70BD2DE9F04188B08046794800781C
:102A900028B90120774908700620FEF781F8062042
:102AA000FEF7BAF8064605F02FFE05464FF08441C2
:102AB000284605F071FD05466F49284605F0B0FE31
:102AC00018D86D49284605F02BFD07466B4905F0DF
:102AD0002DFD06466A4905F05FFD0446694920461A
:102AE00005F09EFE00D2674C2146664805F018FDB1
:102AF000054617E02946604805F012FD07465F4984
:102B000005F014FD0646604905F046FD04465D49A2
:102B1000204605F085FE00D25A4C2146594805F062
:102B2000ADFC054659480560006805F049FE0646BB
:102B300032460B4656A1684606F010F96A464146F1
:102B40003D48006805F070FB08B0BDE8F08110B5A5
:102B500004465048007848B901204E4908704FF4A7
:102B6000E13001F0CBF901204B4908704B48FEF7EA
:102B700065FB4B48214602682F48006805F005FBBD
:102B800010BD10B504464748007848B901204549B2
:102B900008704FF4165001F0B1F901204249087055
:102BA0004248214602682448006805F0EEFA10BD4C
:102BB00070B504460E4615463D48007848B90120D8
:102BC0003B4908704FF4E13001F098F90120394990
:102BD0000870324801F0DCFC37482146026816488C
:102BE000006805F0D2FA354831460268124800689C
:102BF00005F0CBFA3248294602680F48006805F014
:102C0000C4FA70BD70B504460D462E48007848B928
:102C100001202C4908704FF4165001F06FF9012083
:102C2000294908701D4802F02DFE284821460268F7
:102C300001484DE070030020B40300201C02002076
:102C400071030020000C0140D0010020720300201D
:102C5000DC01002073030020D80100207403002051
:102C6000E0010020750300205402002076030020BC
:102C700058020020770300200000C44200002041D9
:102C800000005C420000E040000078425C0200204E
:102C90002566000078030020B60200205F4100088E
:102CA0006002002079030020B702002064020020A7
:102CB0007A030020B302002070020020740200207A
:102CC000780200207B030020B8020020F8010020D9
:102CD000006805F05AFAFE4829460268FD48006877
:102CE00005F053FA70BD70B504460D46FA480078F9
:102CF00030B90120F8490870F849086002F07AF903
:102D0000F74821460268F348006805F03EFAF548A6
:102D100029460268EF48006805F037FA70BD70B5C3
:102D20000546F148007820B90120EF490870FEF708
:102D3000D9F9FEF732FA044622462946E5480068EA
:102D400005F023FAE948046070BD70B50546E8480F
:102D5000007820B90120E6490870FEF7D7F9FEF7A0
:102D60003EFA044622462946DA48006805F00DFA84
:102D7000E048046070BD70B50546DF48007820B9B2
:102D80000120DD490870FEF778F9FEF78AF904465C
:102D900022462946CF48006805F0F7F9D748046075
:102DA00070BD70B50546D648007820B90120D449D9
:102DB0000870FEF7BFF9FEF7D0F90446224629460F
:102DC000C448006805F0E1F9CE48046070BD10B554
:102DD0000446CD48007838B90120CB49087002F08C
:102DE000ADFD0120C9490870C948007848B10020EC
:102DF000C7490870C74802782146B648006805F000
:102E0000C4F910BD10B50446C348007838B9012094
:102E1000C149087002F092FD0120BC490870BF480A
:102E2000007848B10020BD490870BD4802782146AD
:102E3000A848006805F0A9F910BD70B504460D4614
:102E4000B848007848B90120B64908704FF41650C8
:102E500001F054F80120B4490870B448007858B122
:102E6000B34A21469B48006805F0DEF9B14A29467D
:102E70009848006805F0D8F970BD7CB504460D4649
:102E8000002001900090AC48007820B90120AA49A8
:102E90000870FDF788FF694601A8FDF758FF9DF807
:102EA000042021468B48006805F06FF99DF800204A
:102EB00029468848006805F068F99DF804009F4994
:102EC00008609DF800009E4908607CBD70B505460D
:102ED0009C48007830B901209A490870FEF712FA30
:102EE000FEF76BFAFEF76FFA044622462946794848
:102EF000006805F04AF99448046070BD70B5054655
:102F00009248007830B9012090490870FEF7FAF92C
:102F1000FEF753FAFEF757FA04464FF4FA70B4FB83
:102F2000F0F4322C00D20024224629466948006879
:102F300005F02BF98448046070BD70B505468448DF
:102F4000007828B9012082490870032000F098FD1C
:102F500000F0B5FF064605F006FC04462246294669
:102F60005C48006805F011F97A48046070BD70B5DE
:102F700005467948007828B9012077490870022071
:102F800000F07EFD00F092FF064605F0ECFB0446E3
:102F9000224629464F48006805F0F7F86F4804605C
:102FA00070BD70B505466E48007820B901206C49A7
:102FB0000870FEF70AF8FEF713F804466948046043
:102FC000224629464348006805F0DFF870BD70B519
:102FD00004460D462A4621463E48006805F0D5F8CD
:102FE00070BD70B504460D462A4621463948006832
:102FF00005F0CBF870BD70B504460D462A46214653
:103000003448006805F010F970BD70B58AB0054607
:103010005548007868B9012053490870FEF7DDFD76
:10302000FFF733F9FFF7ABF9FFF76EF94120FFF730
:1030300078F907A92620FEF791FF04460CBB07A8E4
:10304000FEF7B6FF0446E4B99DF81F009DF81E1078
:10305000CDE900109DF81D309DF81C2043A102A869
:1030600005F07CFE0646002002A9885502AA2946E2
:103070001848006805F0D8F80120414908600AB0F6
:1030800070BD0020FBE738B504463E480078C8B95B
:1030900001203C4908700121082003F079FA4FF41F
:1030A0008060ADF8000010208DF8030003208DF83B
:1030B00002006946344802F0B5FF4FF4806132489F
:1030C00003F05BF814B14FF480615FE062E0000050
:1030D000F4010020B40300207C030020AC02002097
:1030E0007C020020800200207D0300200C020020D2
:1030F0007E030020100200207F0300203C020020FD
:1031000080030020D401002081030020B9020020A8
:103110008802002089020020820300208A02002009
:103120008B02002083030020B4020020B50200209F
:103130006A1000207910002084030020FC01002088
:1031400000020020850300203802002086030020B2
:1031500087030020C801002088030020CC01002044
:1031600089030020040200208A0300202530325801
:1031700025303258253032582530325800000000B2
:10318000280300208B030020000C0140FC4802F0C3
:10319000F6FF04E04FF48061F94802F0EEFF38BD1D
:1031A00038B50446F7480078C8B90120F5490870D9
:1031B0000121082003F0ECF94FF48050ADF8000035
:1031C00010208DF8030003208DF802006946EC48BA
:1031D00002F028FF4FF48051E94802F0D0FF2CB1F3
:1031E0004FF48051E64802F0C8FF04E04FF48051EC
:1031F000E34802F0C4FF38BD38B50446E248007821
:10320000C8B90120E04908700121082003F0C0F985
:103210004FF40050ADF8000010208DF8030003209B
:103220008DF802006946D64802F0FCFE4FF40051CA
:10323000D34802F0A4FF2CB14FF40051D04802F063
:103240009CFF04E04FF40051CD4802F098FF38BDD8
:1032500038B50446CD480078C8B90120CB4908707C
:103260000121082003F094F94FF48040ADF80000EC
:1032700010208DF8030003208DF802006946C04835
:1032800002F0D0FE4FF48041BD4802F078FF2CB12F
:103290004FF48041BA4802F070FF04E04FF48041DF
:1032A000B74802F06CFF38BD38B50446B84800781E
:1032B000B8B90120B64908700121082003F068F967
:1032C0008020ADF8000010208DF8030003208DF859
:1032D00002006946AA4802F0A5FE8021A84802F033
:1032E0004EFF24B18021A64802F047FF03E0802171
:1032F000A34802F044FF38BD38B50446A54800781D
:10330000C8B90120A34908700121082003F040F941
:103310004FF40070ADF8000010208DF8030003207A
:103320008DF802006946964802F07CFE4FF4007169
:10333000934802F024FF2CB14FF40071904802F042
:103340001CFF04E04FF400718D4802F018FF38BDF7
:1033500038B5044690480078B8B901208E49087005
:103360000121082003F014F92020ADF800001020FE
:103370008DF8030003208DF802006946804802F0B2
:1033800051FE20217E4802F0FAFE24B120217C4823
:1033900002F0F3FE03E02021794802F0F0FE38BD90
:1033A00070B504460D4616467C48007820B90120C9
:1033B0007A49087000F0F3FF32462946204600F0B3
:1033C000F2FF70BD10B504467548007820B90120A1
:1033D0007349087000F0E3FF204601F000F810BDCB
:1033E00010B504466F48007820B901206D49087077
:1033F00000F0D5FF204600F0FBFF10BD10B50446DD
:103400006948007820B901206749087000F0C7FFBB
:10341000204600F0F6FF10BD70B504460D46164676
:103420006248007820B901206049087000F0F2FF7E
:1034300032462946204600F0F1FF70BD10B5044623
:103440005B48007820B901205949087000F0E2FF7C
:10345000204600F0FFFF10BD10B504465548007827
:1034600020B901205349087000F0D4FF204600F035
:10347000FAFF10BD10B504464F48007820B901206E
:103480004D49087000F0C6FF204600F0F5FF10BD62
:1034900070B504460D4616464848007820B901200C
:1034A0004649087000F0F1FF32462946204600F0F8
:1034B000F0FF70BD10B504464148007820B90120E6
:1034C0003F49087000F0E1FF204600F0FEFF10BD0C
:1034D00010B504463B48007820B9012039490870EE
:1034E00000F0D3FF204600F0F9FF10BD10B50446F0
:1034F0003548007820B901203349087000F0C5FF35
:10350000204600F0F4FF10BD70B504460D46164687
:103510002E48007820B901202C49087000F0F0FFF7
:1035200032462946204600F0EFFF70BD10B5044634
:103530002748007820B901202549087000F0E0FFF5
:10354000204600F0FDFF10BD10B50446214800786C
:1035500020B901201F49087000F0D2FF204600F07A
:10356000F8FF10BD10B504461B48007820B90120B3
:103570001949087000F0C4FF204600F0F3FF10BDA9
:10358000000C01408C0300208D0300208E030020DE
:103590008F0300209003002091030020920300205D
:1035A000930300209403002095030020960300203D
:1035B0009703002098030020990300209A0300201D
:1035C0009B0300209C0300209D0300209E030020FD
:1035D0009F030020A0030020A103002010B5044693
:1035E000C048007830B90120BE490870012164202C
:1035F000FEF71CFA2046FEF765FA10BD38B5044602
:10360000B9480078C8B90120B749087001210820DD
:1036100002F0BEFF4FF48040ADF8000010208DF89E
:10362000030003208DF802006946B04802F0FAFC5E
:103630004FF48041AD4802F0A2FD2CB14FF480411F
:10364000AA4802F09AFD04E04FF48041A74802F036
:1036500096FD38BD10B50446A548007830B9012064
:10366000A349087001216420FEF7E0F92046FEF727
:1036700036FA10BD2DE9F04104460D4616461F46A8
:103680009C48007830B901209A490870FEF73EF94D
:10369000FDF7B7FF3B46324629462046FEF7A7F81E
:1036A000BDE8F08170B505460E4614469248007894
:1036B00030B9012090490870FEF728F9FDF7A1FF05
:1036C000E2B231462846FEF7B5F870BD10B50446A3
:1036D0008A48006804F046FD894A8AA18748006844
:1036E00004F0A2FD22468CA18448006804F09CFDF1
:1036F0008A498248006804F0C6FD10BD10B5014635
:1037000000200A4604E012F8013B7D4C2354401C83
:103710000B28F8DB00237A4CE37210BD70B5044629
:1037200000BF7F48007840B901207D4908704FF400
:1037300034714FF4FA60FEF779F9B42C00D9B4244F
:10374000254605EB850080001221B0FBF1F000F268
:10375000D665A9B2734804F0EBFA70BD30B50246E5
:1037600000201146704B1B7823B901236E4C237047
:103770006E4C23700B78322B0CD106E011F8015BF4
:103780000346441CE0B26A4CE5541328F6DB0023E0
:10379000674C235430BD2DE9F04100240027644DCF
:1037A000002664480068401C624908602846807C06
:1037B00030382946497C303901EB810100EB410268
:1037C0002846C07B30382946897B303901EB81019E
:1037D00000EB4100C0EB001002EB8004554800688C
:1037E000844203D953480068201A02E05148006817
:1037F000001B0746032F01D94E48046006E015F868
:10380000012B3046711CCEB24B490A540B2EF6DB0D
:103810002D2049490871C87100208872002606E0F1
:1038200015F8012B3046711CCEB244490A54082EBB
:10383000F6DB3A20414988704871002008723D4803
:1038400000683C21B0FBF1F201FB12000A21B0FB41
:10385000F1F201FB120030303849C8713548006878
:103860003C21B0FBF1F201FB12000A21B0FBF1F0A8
:103870003030324988712F4800683C21B0FBF1F0AC
:103880000A21B0FBF1F201FB120030302B49087124
:10389000284800683C21B0FBF1F00A21B0FBF1F0B0
:1038A00030302649C8700823234A00211020FFF732
:1038B000E1FE0823214A01211620FFF7DBFEBDE8C7
:1038C000F08170B504460D461D48007820B90120EE
:1038D0001B49087002F0CCF92946204602F011FA83
:1038E00070BD0000A2030020A3030020000C0140D3
:1038F000A4030020A5030020A6030020B403002099
:10390000340300206366675F70686F6E655F6E7575
:103910006D62657200000000736D730077410008EE
:10392000A7030020002C0140A8030020BA020020B9
:1039300041030020AC030020541000206010002040
:10394000B00300207FB505460C460121022002F09D
:103950002CFE681E80B2ADF80800601E80B2ADF883
:1039600004000020ADF80A00ADF8060001A92648C1
:1039700003F0E4FB01221146234803F056FF1D200B
:103980008DF8000000208DF8010003208DF8020062
:1039900001208DF80300684603F06BF801211A48F6
:1039A00003F028FF7FBD7FB505460C4601210420AA
:1039B00002F0FBFD681E80B2ADF80800601E80B208
:1039C000ADF804000020ADF80A00ADF8060001A92A
:1039D0000E4803F0B3FB012211460C4803F025FF0B
:1039E0001E208DF8000000208DF8010003208DF8C6
:1039F000020001208DF80300684603F03AF8012127
:103A0000024803F0F7FE7FBD0004004000080040BC
:103A10007FB505460C460121022002F0C6FD681E56
:103A200080B2ADF80800601E80B2ADF8040000203E
:103A3000ADF80A00ADF8060001A9FC4803F07EFBD2
:103A400001221146F94803F0F0FE1D208DF8000018
:103A500000208DF8010003208DF8020001208DF870
:103A60000300684603F005F87FBD10B50121EF485B
:103A700004F089F918B10121EC4804F095F910BD62
:103A80001FB5044648214EF66020FFF7C1FF012113
:103A9000E74802F096FB0121092002F079FD012C94
:103AA00006D0022C3DD0032C75D0042C72D1A9E095
:103AB0004FF48070ADF80C0010208DF80F0003203B
:103AC0008DF80E0003A9DB4802F0ACFA8020ADF8B7
:103AD0000C0028208DF80F0003A9D64802F0A2FAA6
:103AE0000721012002F0B2FB8020019000208DF818
:103AF000080008208DF8090001208DF80A0001A8AF
:103B000004F064F917208DF8000002208DF8010000
:103B10008DF8020001208DF80300684602F0A9FF2D
:103B2000A9E04020ADF80C0010208DF80F00032014
:103B30008DF80E0003A9BF4802F074FA2020ADF8FA
:103B40000C0028208DF80F0003A9BA4802F06AFA89
:103B50000521012002F07AFB2020019000208DF841
:103B6000080008208DF8090001208DF80A0001A83E
:103B700004F02CF917208DF8000002208DF80100C8
:103B80008DF8020001208DF80300684602F071FFF5
:103B900071E000E06EE01020ADF80C008DF80F0031
:103BA00003208DF80E0003A9A24802F03BFA08207A
:103BB000ADF80C0028208DF80F0003A99D4802F0F5
:103BC00031FA0321012002F041FB0820019000207E
:103BD0008DF8080008208DF8090001208DF80A00F2
:103BE00001A804F0F3F809208DF8000002208DF8F8
:103BF00001008DF8020001208DF80300684602F0F4
:103C000038FF38E00420ADF80C0010208DF80F00CC
:103C100003208DF80E0003A9864802F003FA8020E5
:103C2000ADF80C0028208DF80F0003A9814802F0A0
:103C3000F9F90121084602F009FB02200190002059
:103C40008DF8080008208DF8090001208DF80A0081
:103C500001A804F0BBF807208DF8000002208DF8C1
:103C600001008DF8020001208DF80300684602F083
:103C700000FF00E000BF00BF1FBD2DE9F0410A209A
:103C800002F009F9802004F007F940B300216748E9
:103C900004F044F80121654803F0ACFD00BF802129
:103CA000644802F050FA0028F9D100215F4803F07F
:103CB000A1FD5E4804F055F800EB001044002046DA
:103CC00004F027FD054600225B4B04F0A5FC0746E7
:103CD00004F089FD59490860802004F0EEF82020A6
:103CE00004F0DAF840B30021504804F017F801213D
:103CF0004E4803F07FFD00BF20214E4802F023FA1A
:103D00000028F9D10021494803F074FD474804F028
:103D100028F800EB00104400204604F0FAFC0546A9
:103D20000022454B04F078FC074604F05CFD444952
:103D30000860202004F0C1F8BDE8F0812DE9F041D1
:103D40000A2002F0A8F8082004F0A6F840B30021E9
:103D5000364803F0E3FF0121344803F04BFD00BF78
:103D60000821344802F0EFF90028F9D100212F484A
:103D700003F040FD2D4803F0F4FF00EB0010440079
:103D8000204604F0C6FC054600222B4B04F044FC00
:103D9000074604F028FD2B490860082004F08DF840
:103DA000BDE8F0812DE9F0410A2002F074F802200C
:103DB00004F072F840B300211C4803F0AFFF01216A
:103DC0001A4803F017FD00BF02211A4802F0BBF9A0
:103DD0000028F9D10021154803F00CFD134803F029
:103DE000C0FF00EB00104400204604F092FC0546A2
:103DF0000022114B04F010FC074604F0F4FC1249B9
:103E00000860022004F059F8BDE8F08110B54FF4C5
:103E10008071084802F0B1F9142002F03CF84FF428
:103E20008071044802F0ABF910BD000000040040AE
:103E300000023000000C014000409F40B803002009
:103E4000BC030020C0030020C403002010B54021A3
:103E5000244802F092F9142002F01DF84021214874
:103E600002F08DF910BD10B510211E4802F085F941
:103E7000142002F010F810211A4802F080F910BD49
:103E800010B50421174802F078F9142002F003F865
:103E90000421144802F073F910BD10B5FFF7B6FF06
:103EA000114801F0F8FF1148006810BD10B5FFF788
:103EB000CDFF0D4801F0EFFF0D48006810BD10B5B3
:103EC000FFF7D1FF084801F0E6FF0A48006810BD7F
:103ED00010B5FFF7D5FF044801F0DDFF0648006884
:103EE00010BD0000000C0140400D0300B80300208D
:103EF000BC030020C0030020C403002010B586B01E
:103F000004460121042002F043FB0121084602F08F
:103F10003FFB0121880302F03BFB4FF40070ADF83A
:103F2000140018208DF8170003208DF8160005A93D
:103F3000AB4802F077F84FF48060ADF8140004202D
:103F40008DF8170005A9A64802F06CF8019400202E
:103F5000ADF80800ADF80A00ADF80C00ADF810009F
:103F60000C20ADF80E0001A99E4802F0BCFB012216
:103F700040F225519B4802F04EFC0121994802F085
:103F80003EFC4021974802F022FD25208DF80000DC
:103F900000208DF801008DF8020001208DF803004B
:103FA000684602F066FD06B010BD10B586B0044646
:103FB0000121042002F0ECFA0121480402F0F5FA94
:103FC0000121084602F0E4FA0420ADF8140018209C
:103FD0008DF8170003208DF8160005A9804802F01F
:103FE00021F80820ADF8140004208DF8170005A969
:103FF0007B4802F017F801940020ADF80800ADF8F6
:104000000A00ADF80C00ADF810000C20ADF80E0061
:1040100001A9754802F067FB012240F22551724860
:1040200002F0F9FB0121704802F0E9FB40216E48E3
:1040300002F0CDFC26208DF8000000208DF8010054
:1040400001208DF802008DF80300684602F011FD92
:1040500006B010BD10B586B004460121102002F054
:1040600097FA0121880402F0A0FA0121084602F023
:104070008FFA01215D4802F0A4F84FF48060ADF89A
:10408000140018208DF8170003208DF8160005A9DC
:10409000574801F0C7FF4FF40060ADF8140004204A
:1040A0008DF8170005A9524801F0BCFF01940020CB
:1040B000ADF80800ADF80A00ADF80C00ADF810003E
:1040C0000C20ADF80E0001A94A4802F00CFB0122B9
:1040D00040F22551474802F09EFB0121454802F07D
:1040E0008EFB4021434802F072FC27208DF800002F
:1040F00000208DF8010001208DF802008DF80300EA
:10410000684602F0B6FC06B010BD10B50446214664
:10411000354802F0E1FB00BF8021334802F04AFC41
:104120000028F9D010BD10B5044621462D4802F0F4
:10413000D3FB00BF80212B4802F03CFC0028F9D0C3
:1041400010BD10B5044621462A4802F0C5FB00BF49
:104150008021284802F02EFC0028F9D010BD70B54F
:1041600005460E46002403E0285DFFF7DCFF641CD3
:10417000B442F9D370BD70B505460E46002403E085
:10418000285DFFF7C2FF641CB442F9D370BD70B55F
:1041900005460E46002403E0285DFFF7D2FF641CAD
:1041A000B442F9D370BD70B505462C4603E02078C3
:1041B000FFF7ABFF641C20780028F8D170BD70B504
:1041C00004460D46E1B2084802F086FB00BF80219C
:1041D000054802F0EFFB0028F9D0204670BD000032
:1041E0000008014000380140004400401000140065
:1041F000001001400048004008B50121102002F0E5
:10420000C7F94FF40050ADF8000010208DF80300FE
:1042100003208DF802006946D74801F003FF08BD6E
:1042200008B50121082002F0B3F94FF48050ADF831
:10423000000010208DF8030003208DF8020069466D
:10424000CE4801F0EFFE08BD08B50121082002F0BC
:104250009FF94FF40050ADF8000010208DF80300D6
:1042600003208DF802006946C44801F0DBFE08BD5A
:1042700008B50121082002F08BF94FF48040ADF819
:10428000000010208DF8030003208DF8020069461D
:10429000BA4801F0C7FE08BD01B502E00098401E13
:1042A000009000980028F9D108BD002001E0411CD1
:1042B000C8B20B28FBDB7047704700B5014603E02E
:1042C00040F28660FFF7E8FF0800A1F10101F7D195
:1042D00000BD70B504460D462946204601F04DFF4D
:1042E000FFF7EAFF2946204601F049FFFFF7DDFF0F
:1042F00070BD70B504460D462946204601F03DFFCD
:10430000FFF7D3FF2946204601F039FFFFF7D4FF1E
:1043100070BD70B504460D462946204601F02FFFBA
:104320003220FFF7B9FF2946204601F026FF294633
:10433000204601F024FF70BD2DE9F04106460F46EE
:104340001446002510E004F40000B0F5000F04D17D
:1043500039463046FFF7CDFF03E039463046FFF7D8
:10436000B8FF6400681CC5B2182DECDBBDE8F08115
:104370002DE9F0410746884614461D46002606E012
:104380002A4641463846FFF7D7FF701CC6B2A64200
:10439000F6DB41463846FFF7BCFFBDE8F08110B5BB
:1043A000FFF72AFF10BD2DE9F04105460E461746DE
:1043B0000024734805704670877000BF44EA0644C5
:1043C00024F47F4444EA052424F0FF043C432246BD
:1043D0004FF400516848FFF7AFFFBDE8F08110B51A
:1043E00004466748827841782046FFF7DCFF10BD1D
:1043F00010B5044662498A7808782146FFF7D3FF52
:1044000010BD10B504465E4A517810782246FFF779
:10441000CAFF10BD10B5FFF703FF10BD2DE9F04135
:1044200005460E46174600245648057046708770AC
:1044300000BF44EA064424F47F4444EA052424F0FF
:10444000FF043C4322464FF480514C48FFF774FF71
:10445000BDE8F08110B504464A488278417820468C
:10446000FFF7DCFF10BD10B5044646498A7808788E
:104470002146FFF7D3FF10BD10B50446414A5178DD
:1044800010782246FFF7CAFF10BD10B5FFF7DCFE1B
:1044900010BD2DE9F04105460E46174600243A4866
:1044A00005704670877000BF44EA064424F47F44D8
:1044B00044EA052424F0FF043C4322464FF4005113
:1044C0002E48FFF739FFBDE8F08110B504462E48AD
:1044D000827841782046FFF7DCFF10BD10B5044616
:1044E00029498A7808782146FFF7D3FF10BD10B517
:1044F0000446254A517810782246FFF7CAFF10BDBE
:1045000010B5FFF7B5FE10BD2DE9F04105460E468A
:10451000174600241D4805704670877000BF44EAA6
:10452000064424F47F4444EA052424F0FF043C4379
:1045300022464FF480411148FFF7FEFEBDE8F081AE
:1045400010B504461148827841782046FFF7DCFF19
:1045500010BD10B504460D498A7808782146FFF74A
:10456000D3FF10BD10B50446084A51781078224692
:10457000FFF7CAFF10BD000000100140000C014011
:10458000D0030020D3030020D6030020D90300204D
:1045900038B504462FA00068009002216846A04765
:1045A00038BD2DE9FF5F05460C4616462746A9464D
:1045B000002F4CDD43E019F8018B274801680068A3
:1045C000401C254A1060254800F801800078AA2880
:1045D00004D0002011460860204908701E48006879
:1045E00008282CD11D48C079552825D11B48807832
:1045F0001A49497840EA01200FFA80FB17480079F0
:104600001649C97840EA01200FFA80FA13488079E8
:104610001249497940EA012000B2039064210398CD
:1046200090FBF1F002909BFBF1F001909AFBF1F00E
:104630000090DDE90112B04700200749086038000A
:10464000A7F1010703D0044800681E28B3D3BDE8D2
:10465000FF9F0000A5510000DC030020D8100020BF
:1046600030B50C46012213E050F82230114605E027
:104670004D1E50F8255040F82150491E002904DDF8
:104680004D1E50F825509D42F2DC40F82130521C5E
:10469000A242E9DB30BDF0B503461546012217E022
:1046A00051F82240104605E0461E51F8266041F8B8
:1046B0002060401E002808DD53F82470461E51F883
:1046C000266053F82660B742EEDC41F82040521CC9
:1046D000AA42E5DBF0BD2DE9F04F05460C469246B7
:1046E0009846294650462268FFF7D5FF4FF0FF361F
:1046F00020E0D4F800B0701C2060771C17E055F85B
:104700002710701C01D1401E01E055F82600A1EBD6
:104710000009C14503DCC8F10000814506DA55F8FF
:1047200027102268501C206045F822107F1C5F452E
:10473000E5DB761C2068B042DBDC28462168FFF709
:104740008FFFBDE8F08FF0B505461C46059E0120A1
:1047500000270F6030E052F82070B7422BDD52F88E
:1047600020C0471E52F82770BC4524DD012300E01D
:104770005B1CC718A74207DA52F8207000EB030C45
:1047800052F82CC06745F3D052F8207000EB030CB0
:1047900052F82CC067450CDD0F680F2F09DAD1F8ED
:1047A00000C00CF101070F6045F82C005F1C384475
:1047B00002E0184400E0401C671E8742CBDCF0BDDD
:1047C0002DE9F84705460C4616461F46DDE90A9ACC
:1047D000DDF824803B46324621462846CDF800804D
:1047E000FFF7B1FF4B46324621462846FFF773FFDD
:1047F0002068504501DA206800E050462060BDE89E
:10480000F8872DE9FF4FC6B08846994600204590AD
:10481000002406E0469850F8241045980844459036
:10482000641C4445F6DB4598B0FBF8F04590002445
:1048300008E0469850F824104598081AFE4941F8B7
:104840002400641C4445F4DB002417E0FA4850F8C7
:1048500024100246601C52F820000144A01C52F8AB
:1048600020000144E01C52F820000F183846F917C8
:1048700007EB9171891042F82410641CB4F5F87F9D
:10488000E4DB00240AE0EC49601C51F8200051F8F8
:104890002410401AE94941F82400641CB4F5F77F5C
:1048A000F1DD00240EE0E54951F824200B46611C9F
:1048B00053F82110501800EBD07149101A4642F8F5
:1048C0002410641CB4F5F77FEDDB00251BE000200D
:1048D00043902C460BE0D94850F82410601BD84A6E
:1048E00032F81020439801FB12004390641C681DAD
:1048F0008442F0DB40F27A41439890FBF1F0CF49DB
:1049000041F825006D1CB5F5F47FE0DD00204190F5
:10491000002410E0C94850F82400002803DDC748EF
:1049200050F8240003E0C54850F824004042419963
:1049300008444190641CB4F5F77FEBDD40F2EF11C1
:10494000419890FBF1F0419005210822419840F2F6
:10495000EF13CDE901210090B84A40A912A8FFF752
:104960002FFF002011904098022821DB01240BE04A
:1049700012A850F82410601E12AA52F82000091A3A
:10498000119808441190641C40988442F0DB4098D0
:10499000401E119991FBF0F0119041F27071119845
:1049A00091FBF0F15498016001215598017005E0E8
:1049B000A44954980160002155980170002407E033
:1049C00012A850F82400801C30A941F82400641C6F
:1049D00040988442F4DB00240CE0469850F8240010
:1049E000954941F82400489850F82400964941F828
:1049F0002400641C4445F0DB0020429000242DE09C
:104A00000120449030A850F824A04FF080703F90CF
:104A10000AF10500B0F5F77F1FDC0A3800281CDD1D
:104A2000054611E0844850F825103F9881420ADA83
:104A3000449808B1002044907F4850F825003F90EA
:104A400021A840F824506D1C0AF105008542E9DBDD
:104A5000449810B94298401C4290641C409884428B
:104A6000CEDB4298022808DA7648C9F80000002117
:104A7000539801704AB0BDE8F08F00242EE06E49D3
:104A800051F824200B46611C53F821100A44A11C44
:104A900053F821100A44E11C53F821105018C11793
:104AA00000EB917189101A4642F82410664951F8BA
:104AB00024200B46611C53F821100A44A11C53F812
:104AC00021100A44E11C53F821105018C11700EBC3
:104AD000917189101A4642F82410641CB4F5F87FCD
:104AE000CDDB002004900026002404E0002005A96E
:104AF00041F82400641C052CF8DB00240DE021A8FB
:104B000050F82400B0F5FA7F06DD4E48C9F80000E1
:104B1000002153980170ADE7641C42988442EEDB9B
:104B20000024AEE04FF07F400D900C9021A9601C56
:104B300051F8200051F82410401A0A287ADD21A8E3
:104B400050F8245016E03C4850F825100C9881424B
:104B500004DD394850F825000C900A953A4850F881
:104B600025100D98814204DD374850F825000D903E
:104B70000B956D1C21A9601C51F82000A842E2DCB5
:104B8000601C51F82000304951F8200021A951F84B
:104B900024102D4A52F82110401A21A951F824203E
:104BA0000B99891A4843109021A9601C51F82000E4
:104BB00051F82410411A109890FBF1F021A951F8F6
:104BC0002410214A52F821100844109011460B98E5
:104BD00051F820101098081A109021A9601C51F863
:104BE0002000154951F8200021A951F82410124A3B
:104BF00052F82110401A21A951F824200A99891A43
:104C000048430F9021A9601C51F8200051F824104E
:104C1000411A0F9890FBF1F021A951F82410064A8F
:104C200052F8211008440F9011460B9851F82010AB
:104C30000F980BE024E00000B8180020F8100020C6
:104C4000AA9E000819FCFFFF88200020081A0F9078
:104C50000C9910984843C01103900D990F98484340
:104C6000C711002F0CDD052E0ADA039840B164212C
:104C70000398484390FBF7F005A941F82600761CFD
:104C8000641C4298401EA0423FF74CAF314605A835
:104C9000FFF7E6FC304606EBD0714FEA610BBBF143
:104CA000010F0CDDABF1010105AA52F8211052F8F9
:104CB0002B20881800EBD0714910049103E005A85F
:104CC00050F82B000490049802280DDD0498B828B1
:104CD0000ADA09490498085C0E900E98C9F8000099
:104CE00001215398017005E00448C9F80000002133
:104CF0005398017000BFBDE6E89E000819FCFFFF55
:104D000070B505460C4600F00FFCAE2000F0C6FC66
:104D100000F051FC00B111E0284600F0BFFC00F0AB
:104D20004AFC00B10AE0204600F0B8FC00F043FC69
:104D300000B103E000F01CFC012070BD00F018FC85
:104D40000020FAE770B5044600F0EEFBAE2000F05C
:104D5000A5FC00F030FC00B119E0204600F09EFCFC
:104D600000F029FC00B112E000F0DEFBAF2000F003
:104D700095FC00F020FC00B109E0002000F0BEFC32
:104D8000054600F067FC00F0F3FB284670BD00F01C
:104D9000EFFB0020FAE72DE9F04782460C46174664
:104DA00000253E4600F0C0FBAE2000F077FC00F08E
:104DB00002FC00B13FE0504600F070FC00F0FBFB4D
:104DC00000B138E000F0B0FBAF2000F067FC00F06D
:104DD000F2FB00B12FE029E0002000F08FFC8046BC
:104DE00000F014FC002000F089FC814600F00EFC6D
:104DF00049EA082024F82500002000F07FFC8046C6
:104E000000F004FC002000F079FC8146012E02D164
:104E100000F020FC01E000F0F9FB49EA082004EB77
:104E200085014880701EC6B2681CC5B2002ED3D161
:104E300000F09EFB00BF00F09BFBBDE8F08770B563
:104E400005460C460020FFF77DFF0120FFF77AFFA3
:104E500000F06AFBAE2000F021FC00F0ACFB00B1DA
:104E60002AE0284600F01AFC00F0A5FB00B123E080
:104E700000F05AFBAF2000F011FC00F09CFB00B1E9
:104E80001AE0012000F03AFC2070012000F036FC0E
:104E90006070012000F032FCA070012000F02EFCB8
:104EA000E070012000F02AFC2071002000F026FCB8
:104EB000607100F05DFB00BF00F05AFB70BD10B5E3
:104EC00040210920FFF71CFF40210920FFF718FFB0
:104ED00010BD08B50121082001F05AFB4FF4007005
:104EE000ADF8000048208DF803006946FE4801F047
:104EF00099F800F0FFFAFFF7E2FFC0210220FFF768
:104F0000FFFE00210320FFF7FBFE00210420FFF736
:104F1000F7FE00210520FFF7F3FE00210620FFF732
:104F2000EFFE0F210820FFF7EBFE03210920FFF71A
:104F3000E7FE27210A20FFF7E3FE24210C20FFF7DC
:104F4000DFFE24210D20FFF7DBFE7F211020FFF77D
:104F5000D7FE08BD70B504460D462A462146AE2050
:104F600000F069FC70BD70B504460D462A46214626
:104F7000AE2000F041FC70BDFEB506460C46002098
:104F80003060206002A9FFF7EEFF02A90120FFF7C1
:104F9000EAFF06236A460721AE2000F0FEFB9DF8DB
:104FA00000502D043068284430609DF801502D02D7
:104FB0003068284430609DF80250306828443060E2
:104FC0009DF803502D042068284420609DF804506B
:104FD0002D022068284420609DF805502068284450
:104FE00020603068C0F3110030602068C0F3110009
:104FF0002060FEBD3EB5FFF76CFFBC48BC490860B1
:105000000020BC4908604FF4FA70BB4908600020DA
:10501000BA49086052E000BFB9480068012804D1CD
:105020002046641CB7498842F6D3B7490720FFF7EA
:1050300006FFB54800788007800BB349497840EAFD
:105040000120B14989780843B049AC4A126841F857
:105050002200AD48C0788007800BAB49097940EA4F
:105060000120A94949790843A949A44A126841F88D
:105070002200A648A149096850F821009C49096806
:10508000884206D2A1489D49096850F821009849F4
:1050900008609E489949096850F8210095490968B7
:1050A000884206D999489549096850F821009149E4
:1050B000086092480068401C904908608F4800686A
:1050C0008D4909688842A6DB90488C49096850F8E8
:1050D00021009049086090489049914A914BCDE950
:1050E00000210290894A844801688948FFF789FBBA
:1050F0003EBDFEB504460D467C487D490860002053
:105100007C4908606420884908603AE07F48864905
:10511000096850F821108448006864387B4A42F8D6
:1051200020107B488049096850F821107E480068AB
:105130006438774A42F8201074487B49096850F86F
:1051400021006B490968884206D27048764909688F
:1051500050F82100664908606C487349096850F8A6
:10516000210064490968884206D968486E4909687F
:1051700050F821005F4908606B480068401C6A498C
:10518000086069480068B0F5FA7FBFDB4FF4C8706B
:1051900065490860E2E064480068401E5B4951F8D8
:1051A00020005C49086000BF554800680128FBD01A
:1051B00055490720FFF743FE534800788007800BCE
:1051C0005149497840EA01204F49897808434F49BD
:1051D000554A126841F822004B48C0788007800B7E
:1051E0004949097940EA0120474949790843484932
:1051F0004D4A126841F8220044484B49096850F86A
:10520000210044490968884231D94049464A126818
:1052100051F822103F4A1268881A03F075FA434980
:10522000086034490968324A1268881A03F06CFA37
:10523000064631463D48006803F0AEF93B49086038
:105240003B493A48006803F071F93849086008465C
:10525000006803F06FFA37490968081A3549086091
:1052600008460068002833DA0020086030E027494B
:105270002D4A126851F82210264A1268501A03F07B
:1052800043FA2A4908601B490968194A1268881AB2
:1052900003F03AFA064631462448006803F07CF9E8
:1052A0002249086022492148006803F03FF91F495C
:1052B00008600846006803F03DFA1E490968084482
:1052C0001C49086008460068FF2801DDFF200860CF
:1052D00011480078012837D111480078012833D1CE
:1052E0000E480078144929E0000C0140FFFF03003C
:1052F0000C04002010040020F803002018040020F3
:10530000248121420048E801240400204830002084
:105310007828002014040020080400200404002041
:1053200000040020FC030020F003002020040020E3
:1053300000007F431C040020ED030020087061483A
:1053400000786149087004E00020604908705E49F7
:1053500008705F480068401C5D4908605C48006850
:10536000B0F5FA7FFFF617AF5A485B495B4A554BD9
:10537000CDE9002102905A4A5A4801685A48FFF77D
:1053800040FA54480078012812D154480078012886
:105390000ED15148006882280ADA4A480068652818
:1053A00006DA4D480068206046480068286017E02B
:1053B0004848007801280ED14848007801280AD1D1
:1053C00045480068C82806DA4348006820603D4820
:1053D0000068286004E0002020602860401EFEBDB8
:1053E0000020FCE72DE9FC4105460E46002400277D
:1053F000694601A8FFF77DFE3C483D4A127800EB64
:10540000C200009941603A4802780078401C384B4D
:1054100001991870354840F8321018460078042871
:1054200002DB00201946087008E0304850F83400CC
:10543000002801DD012703E0601CC4B2042CF4DB6A
:1054400000BFC7B3294850F8340050280ADD274868
:1054500050F834000A2190FBF1F201FB12005030A9
:10546000286017E0214850F834004B2809DD1F4917
:1054700051F8341001F1460000EBD0714910296059
:1054800008E01A4951F8341001F14B0000EBD071DB
:1054900049102960154800EBC4004068322804DA3E
:1054A0006320124901EBC4014860104800EBC400BE
:1054B0004068306003E0FFE7002028603060BDE80E
:1054C000FC810000FC030020EE030020ED0300201F
:1054D000F003002008040020040400200004002041
:1054E00048300020F80300207828002058280020A9
:1054F000F403002008B50121082001F049F84FF419
:10550000C070ADF8000010208DF8030003208DF866
:1055100002006946D54800F085FD0120D4490860A5
:10552000D449C1F8A00108BD10B5D048001D0068DD
:1055300020F00F00CD49091D08600846006840F0C2
:10554000070008600120CC490860CA49C1F89C01E5
:105550004FF0040000F09FFC0020C74908604FF0A6
:10556000040000F098FC0020C249C1F89C0110BD65
:1055700010B5BE48001D006820F00F00BB49091D92
:1055800008600846006840F0070008600020B8493D
:105590000860B849C1F8A0014FF0040000F07BFC9E
:1055A0000120B3490860B349C1F8A0014FF00400DD
:1055B00000F071FC10BD10B50024AC48001D00685F
:1055C00020F00F00A949091D08600846006840F056
:1055D000040008600120A849086000F05CFC01207C
:1055E000A449C1F89C0100F056FC07E0601CC4B25D
:1055F000FA2C03DDFFF7BCFF012010BD9F480068B7
:105600000028F3D19A49086000BFF6E710B50020E2
:10561000974908609A48006820F00F009849086090
:105620000846006840F0070008604FF0000091490C
:10563000C1F8A0014FF0020000F02DFC01208C49C0
:1056400008604FF0020000F026FC00208949C1F8F4
:105650009C0110BD10B5002085490860884800688D
:1056600020F00F00864908600846006840F00700F7
:1056700008604FF001007F49C1F8A0014FF002001F
:1056800000F009FC01207A4908604FF0020000F0A8
:1056900002FC00207749C1F89C0110BD70B504469A
:1056A0007748006820F00F007549086008460068D8
:1056B00040F00700086000206D49086005461AE0C8
:1056C000E0096D4908604FEA44604FEA10644FF00A
:1056D000020000F0E0FB01206649C1F89C010220B5
:1056E00000F0D9FB0020624908604FF0020000F092
:1056F000D2FB681CC5B2082DE2DB70BD70B5054653
:1057000000245F48006820F00F005D4908600846EB
:10571000006840F004000860002616E000205449AC
:1057200008604FF0020000F0B6FB01205149C1F8BB
:105730009C016006040E5148006808B1601CC4B2A8
:10574000012000F0A8FB701CC6B2082EE6DB15B9DC
:10575000FFF780FF01E0FFF759FF204670BD2DE9FC
:10576000F04107460D461646FFF7DEFE3846FFF7C6
:1057700095FFFFF720FF002406E0285DFFF78EFF6E
:10578000FFF719FF601CC4B2B442F6DBFFF7F0FE6E
:105790000A2000F0A3FBBDE8F0812DE9F0410746A7
:1057A000884614461D46FFF7BFFE3846FFF776FFD2
:1057B000FFF701FF4046FFF771FFFFF7FCFE47F0E0
:1057C0000100FFF76BFFFFF7F6FE002605E0012062
:1057D000FFF794FFA055701CC6B2681EB042F6DCFD
:1057E0000020FFF78BFF691E6054FFF7C1FE0A20FF
:1057F00000F074FBBDE8F08170B504460D46164616
:10580000FFF792FE2046FFF749FFFFF7D4FE284638
:10581000FFF744FFFFF7CFFEFFF786FE44F00100DD
:10582000FFF73CFFFFF7C7FE0020FFF767FF307070
:10583000FFF79EFE70BD70B506460C461546FFF795
:1058400073FE3046FFF72AFFFFF7B5FE2046FFF74D
:1058500025FFFFF7B0FE2846FFF720FFFFF7ABFE5E
:10586000FFF786FE0A2000F039FB70BD000C0140F6
:105870009C81214200802142A0812142208121423D
:10588000040C01401CB5044628A103C9CDE9000160
:1058900006216846A0471CBD2DE9F05F05460C4671
:1058A00016462746A9464FF0000AD346002F3BDD97
:1058B00032E019F8018B1F4801680068401C1D4A3E
:1058C00010601D4800F801800078AA2804D000204C
:1058D0001146086018490870164800680C281BD14A
:1058E00015488079AB2814D11348C079C0EB00204B
:1058F0001149097A0844642190FBF1FB0E48407875
:10590000C0EB00200C49897800EB010A594650464B
:10591000B0470020074908603800A7F1010703D00D
:10592000044800681E28C4D3BDE8F09FA000000012
:1059300000A000002C0400207C38002008B50121C4
:10594000042000F025FE48208DF803004FF48070FD
:10595000ADF8000003208DF802006946454800F0CC
:1059600061FB0121042000F013FE48208DF80300A4
:105970004FF40040ADF8000003208DF802006946A6
:105980003C4800F04FFB08BD08B13B490860704738
:1059900010B53A48007850B13748006818B1012076
:1059A0003549096888470020344908700CE03448BC
:1059B000007848B13048006818B102202E490968C3
:1059C000884700202E49087010BD10B54FF4807133
:1059D000284800F0B8FB48B92A48007810B10120E7
:1059E000294908700120274908700AE026480078F4
:1059F00010B1012021490870002023490870214975
:105A000008704FF400411B4800F09DFB48B91F4847
:105A1000007810B101201E49087001201B49087050
:105A20000AE01B48007810B10120154908700020D9
:105A30001749087015490870164801780078401C0D
:105A4000144A1070142904DDFFF7A2FF0020114949
:105A5000087010BD10B510480068401C0E49086061
:105A6000084600680A2804D3FFF7AFFF00200A4960
:105A7000086010BD000801404004002030040020F0
:105A800031040020350400203704002036040020B3
:105A900038040020390400203C0400207047F8B589
:105AA0000746002600BF5FE04EB96DA16D4802F0C9
:105AB000C3FC040056D10120FFF7F0FF52E0641C44
:105AC00067A1204602F0B8FC050048D0072E2ED270
:105AD000DFE806F02D040B11181F26002A1B2146B3
